:020000040000fa
:08000000820204000000000070
:020000040000fa
:040008007c02000076
:020000040000fa
:04000c007c02000072
:020000040000fa
:040010007c0200006e
:020000040000fa
:040014007c0200006a
:020000040000fa
:040018007c02000066
:020000040000fa
:04001c007c02000062
:020000040000fa
:040020007c0200005e
:020000040000fa
:040024007c0200005a
:020000040000fa
:040028007c02000056
:020000040000fa
:04002c007c02000052
:020000040000fa
:040030007c0200004e
:020000040000fa
:040034007c0200004a
:020000040000fa
:040038007c02000046
:020000040000fa
:04003c007c02000042
:020000040000fa
:040040007c0200003e
:020000040000fa
:040044007c0200003a
:020000040000fa
:040048007c02000036
:020000040000fa
:04004c007c02000032
:020000040000fa
:040050007c0200002e
:020000040000fa
:040054007c0200002a
:020000040000fa
:040058007c02000026
:020000040000fa
:04005c007c02000022
:020000040000fa
:040060007c0200001e
:020000040000fa
:040064007c0200001a
:020000040000fa
:040068007c02000016
:020000040000fa
:04006c007c02000012
:020000040000fa
:040070007c0200000e
:020000040000fa
:040074007c0200000a
:020000040000fa
:040078007c02000006
:020000040000fa
:04007c007c02000002
:020000040000fa
:040080007c020000fe
:020000040000fa
:040084007c020000fa
:020000040000fa
:040088007c020000f6
:020000040000fa
:04008c007c020000f2
:020000040000fa
:040090007c020000ee
:020000040000fa
:040094007c020000ea
:020000040000fa
:040098007c020000e6
:020000040000fa
:04009c007c020000e2
:020000040000fa
:0400a0007c020000de
:020000040000fa
:0400a4007c020000da
:020000040000fa
:0400a8007c020000d6
:020000040000fa
:0400ac007c020000d2
:020000040000fa
:0400b0007c020000ce
:020000040000fa
:0400b4007c020000ca
:020000040000fa
:0400b8007c020000c6
:020000040000fa
:0400bc007c020000c2
:020000040000fa
:0400c0007c020000be
:020000040000fa
:0400c4007c020000ba
:020000040000fa
:0400c8007c020000b6
:020000040000fa
:0400cc007c020000b2
:020000040000fa
:0400d0007c020000ae
:020000040000fa
:0400d4007c020000aa
:020000040000fa
:0400d8007c020000a6
:020000040000fa
:0400dc007c020000a2
:020000040000fa
:0400e0007c0200009e
:020000040000fa
:0400e4007c0200009a
:020000040000fa
:0400e8007c02000096
:020000040000fa
:0400ec007c02000092
:020000040000fa
:0400f0007c0200008e
:020000040000fa
:0400f4007c0200008a
:020000040000fa
:0400f8007c02000086
:020000040000fa
:0400fc007c02000082
:020000040000fa
:040100007c0200007d
:020000040000fa
:040104007c02000079
:020000040000fa
:040108007c02000075
:020000040000fa
:04010c007c02000071
:020000040000fa
:040110007c0200006d
:020000040000fa
:040114007c02000069
:020000040000fa
:040118007c02000065
:020000040000fa
:04011c007c02000061
:020000040000fa
:040120007c0200005d
:020000040000fa
:040124007c02000059
:020000040000fa
:040128007c02000055
:020000040000fa
:04012c007c02000051
:020000040000fa
:040130007c0200004d
:020000040000fa
:040134007c02000049
:020000040000fa
:040138007c02000045
:020000040000fa
:04013c007c02000041
:020000040000fa
:040140007c0200003d
:020000040000fa
:040144007c02000039
:020000040000fa
:040148007c02000035
:020000040000fa
:04014c007c02000031
:020000040000fa
:040150007c0200002d
:020000040000fa
:040208007c02000074
:020000040000fa
:04020c007c02000070
:020000040000fa
:040210007c0200006c
:020000040000fa
:040214007c02000068
:020000040000fa
:040218007c02000064
:020000040000fa
:04021c007c02000060
:020000040000fa
:040220007c0200005c
:020000040000fa
:040224007c02000058
:020000040000fa
:040228007c02000054
:020000040000fa
:04022c007c02000050
:020000040000fa
:040230007c0200004c
:020000040000fa
:040234007c02000048
:020000040000fa
:040238007c02000044
:020000040000fa
:04023c007c02000040
:020000040000fa
:040240007c0200003c
:020000040000fa
:040244007c02000038
:020000040000fa
:040248007c02000034
:020000040000fa
:04024c007c02000030
:020000040000fa
:040250007c0200002c
:020000040000fa
:040254007c02000028
:020000040000fa
:040258007c02000024
:020000040000fa
:04025c007c02000020
:020000040000fa
:040260007c0200001c
:020000040000fa
:040264007c02000018
:020000040000fa
:040268007c02000014
:020000040000fa
:04026c007c02000010
:020000040000fa
:040270007c0200000c
:020000040000fa
:040274007c02000008
:020000040000fa
:040278007c02000004
:020000040000fa
:04027c007c02000000
:020000040000fa
:040280007c020000fc
:020000040000fa
:040284007c020000f8
:020000040000fa
:040288007c020000f4
:020000040000fa
:04028c007c020000f0
:020000040000fa
:040290007c020000ec
:020000040000fa
:040294007c020000e8
:020000040000fa
:040298007c020000e4
:020000040000fa
:04029c007c020000e0
:020000040000fa
:0402a0007c020000dc
:020000040000fa
:0402a4007c020000d8
:020000040000fa
:0402a8007c020000d4
:020000040000fa
:0402ac007c020000d0
:020000040000fa
:0402b0007c020000cc
:020000040000fa
:0402b4007c020000c8
:020000040000fa
:0402b8007c020000c4
:020000040000fa
:0402bc007c020000c0
:020000040000fa
:0402c0007c020000bc
:020000040000fa
:0402c4007c020000b8
:020000040000fa
:0402c8007c020000b4
:020000040000fa
:0402cc007c020000b0
:020000040000fa
:0402d0007c020000ac
:020000040000fa
:0402d4007c020000a8
:020000040000fa
:0402d8007c020000a4
:020000040000fa
:0402dc007c020000a0
:020000040000fa
:0402e0007c0200009c
:020000040000fa
:0402e4007c02000098
:020000040000fa
:0402e8007c02000094
:020000040000fa
:0402ec007c02000090
:020000040000fa
:0402f0007c0200008c
:020000040000fa
:0402f4007c02000088
:020000040000fa
:0402f8007c02000084
:020000040000fa
:0402fc007c02000080
:020000040000fa
:040300007c0200007b
:020000040000fa
:040304007c02000077
:020000040000fa
:040308007c02000073
:020000040000fa
:04030c007c0200006f
:020000040000fa
:040310007c0200006b
:020000040000fa
:040314007c02000067
:020000040000fa
:040318007c02000063
:020000040000fa
:04031c007c0200005f
:020000040000fa
:040320007c0200005b
:020000040000fa
:040324007c02000057
:020000040000fa
:040328007c02000053
:020000040000fa
:04032c007c0200004f
:020000040000fa
:040330007c0200004b
:020000040000fa
:040334007c02000047
:020000040000fa
:040338007c02000043
:020000040000fa
:04033c007c0200003f
:020000040000fa
:040340007c0200003b
:020000040000fa
:040344007c02000037
:020000040000fa
:040348007c02000033
:020000040000fa
:04034c007c0200002f
:020000040000fa
:040350007c0200002b
:020000040000fa
:100400008a1f78008b1f7800000006009101880089
:10041000800478000000eb001a003700e2844400fa
:1004200032a0b4009905ba00e284440032a0b400be
:100430009906ba00e284440032a0b4000006eb0042
:10044000476fde00fd07b200636ce10003003a0075
:10045000ebff07000000eb000a003700606ce100d2
:1004600004003a00005deb008b05e900fdff3e0053
:10047000040037006168e100010032000086eb00f3
:100480000b00070019c7ba001905ba000e04e000f6
:1004900003003a000a00e000e0ff3a000000060016
:1004a000fe07b2009e0188008a047800f5ff37003d
:1004b000395dba008b05e9000c003200295dba00f5
:1004c0008b05e900080032000c00e00003003a0050
:1004d000e284440032a0b400f5ff370019ddba0011
:1004e0008b05e900faff3a008904e800e184440042
:1004f00032a0b400000006000040da000000fe0058
:0405000000000500f2
:020000040000fa
:100504000fc8200000ff2000000188000000000048
:100514006404020000000000f0ff2f00601988004e
:10052400c022ef00c422ef00c822ef00cc22ef006b
:100534008000eb000001eb00130420000702200000
:10054400cc0020000003eb008005eb00000020003d
:100554009001880085472000858245000003eb0058
:1005640006007800dc0202000000000005057800a7
:100574000a0543001a42ba00060302000000000004
:10058400641688004a040200000000000603e80024
:100594006430e100f2ff3a008b05e8000c58e100fa
:1005a40001003a008005eb00540402000000000042
:1005b400e6ff37006000e100070032006100e1005f
:1005c400080032006200e100090032006300e1002b
:1005d4000a003200000006001100200021168800e5
:1005e40000000600210020002116880000000600fb
:1005f40041002000211688000000060001012000af
:1006040021168800000006000320e1004f0032009c
:10061400e18141000320e1004f003200e18141000b
:100624000320e1004f003200e18141000320e1009a
:100634004f003200e18141000320e1004f0032000d
:10064400e18141000320e1004f003200e1814100db
:100654000320e1004f003200e18141000320e1006a
:100664004f003200e18141000320e1004f003200dd
:10067400e18141000320e1004f003200e1814100ab
:100684000320e1004f003200e18141000320e1003a
:100694004f003200e18141000320e1004f003200ad
:1006a400e18141000320e1004f003200e18141007b
:1006b4000320e1004f003200e18141000320e1000a
:1006c4004f003200e18141000320e1004f0032007d
:1006d400e18141000320e1004f003200e18141004b
:1006e4000320e1004f003200e18141000320e100da
:1006f4004f003200e18141000320e1004f0032004d
:10070400e18141000320e1004f003200e18141001a
:100714000320e1004f003200e18141000320e100a9
:100724004f003200e18141000320e1004f0032001c
:10073400e18141000320e1004f0032000720e10085
:10074400500032005c003700000006001304200053
:10075400e44e20000000060013042000f40e2000e4
:100764000000060013042000f48f2100000006009e
:1007740013042000d4c72300000006001304200043
:10078400e48e21000000060013042000e4ce2100c2
:100794000000060013042000f40e210000000600ef
:1007a40013042000e44e220000000600130420007d
:1007b400b4bb21000000060013042000b49b2100f8
:1007c400000006001304200074cd2300000006007e
:1007d40013042000f48f23000000060013042000fb
:1007e400f445220000000600130420007447220090
:1007f4000000060013042000f40f2000000006008f
:1008040013042000e4ce200000000600130420009e
:10081400740f2000000006001304200064ce2000a2
:100824000000060013042000e42e2100000006004e
:1008340013042000b4fb2100000006001304200070
:10084400f40f22000000060013042000f4f5230036
:100854000000060013042000544f2200000006008c
:100864001304200054f523000000060013042000a4
:10087400b4f523000000060013042000d4bd2100b9
:100884000000060013042000f4ff2f0000000600ff
:1008940084a923000402e9000400e000fdff3a00fb
:1008a4000000060004352c000402e9000400e00006
:1008b400fdff3a000000060013042000f4ff2f009f
:1008c400000006000000eb00000778000c0009009f
:0c08d400002f78000007eb000000060079
:020000040000fa
:1008e0000200000003000000050000000a000000f4
:1008f00020200000204800004f4c00004120000054
:080900004e4f0000450000000d
:020000040000fa
:10090800020800008000000000000000000c000049
:100918008000000000000000000800000200000045
:080928000000000000000000c7
:00000001FF
